:020000040800F2
:10000000480A0020450100084B210008511B000848
:10001000492100089D0E0008314C00080000000036
:10002000000000000000000000000000473E000843
:1000300049100008000000001D33000819420008A4
:100040005F0100085F0100085F0100085F01000810
:100050005F0100085F010008591200085F010008F5
:100060005F0100085F0100085F0100085F010008F0
:100070005F0100085F0100085F010008810F0008B0
:100080005F0100085F0100085F0100085F010008D0
:100090005F0100085F0100085F0100085F010008C0
:1000A0005F0100085F0100085F0100085F010008B0
:1000B0005F0100085F0100085F0100085F010008A0
:1000C0005F0100085F0100085F0100085F01000890
:1000D0005F0100085F0100085F0100085F01000880
:1000E0005F0100085F0100085F0100085F01000870
:1000F0005F0100085F0100085F0100085F01000860
:100100005F0100085F0100084D4300085F0100081F
:100110005F0100085F01000869430008954400087A
:100120005F0100085F0100085F0100085F0100082F
:10013000DFF80CD000F0EAFB0048004761550008EA
:10014000480A00200648804706480047FEE7FEE7C9
:10015000FEE7FEE7FEE7FEE7FEE7FEE7FEE7FEE777
:100160001D42000831010008F0B480EA0102D20FFC
:100170004300B3EB410F02D20346084619464B0039
:1001800042D0C30DDDB2C1F3C7542C1B202C35DA8D
:10019000C1F3160141F4000502B16D42C4F120061D
:1001A00005FA06F125412844B3EBD05F23D0C2B154
:1001B000012CA0EBC35009DCF0BC4FF0004202EA76
:1001C000C35200F50000DBB200F014BB400000F1A8
:1001D000807000EBC350A0F1807040EAD1704900FC
:1001E00009E0490841EAC071A0EBC35000F50000E6
:1001F000400800EBC350F0BC00F0F3BA51420123B9
:1002000003EB4101801AF6E7F0BC704781F0004132
:10021000AAE780F00040A7E780EA010210B502F0EB
:100220000042400026D04B0023D04FEA106101EB82
:100230001361C0F35600C3F3560340F4000043F4C7
:100240000003A0FB0330A1F17F014FEA00401C0432
:1002500001D000F1010050EA134001D44000491ED2
:10026000C3B20C0604EBD010401C4008802B02D017
:1002700003E0002010BD20F00100002900DA00207A
:10028000104310BD80EA010202F0004330B430F0A8
:10029000004221F0004015D0A0B1C0F3C755C2F311
:1002A000C754C2F31601C0F31600651B41F40001E8
:1002B00040F400007D35814201D36D1C00E049000F
:1002C000002D02DA30BC002070474FF400020024F9
:1002D000814201D3091A144352084FEA4101F7D170
:1002E00051B1814202D14FF0004105E002D24FF0FE
:1002F000010101E06FF0010104EBC55030BC18446E
:1003000000F06FBA2DE9FE4F074681EA0300C00FE7
:100310000E46019021F0004123F00044B81AA1419B
:1003200005D23846314617461E460B46024623F094
:100330000040104304D13846314603B0BDE8F08F89
:10034000350DC5F30A00C3F30A510290401A00901C
:10035000402868DAC3F3130040F4801B01989246EA
:1003600020B10023D2EB030A63EB0B0B0098594634
:10037000C0F14002504600F003FA80460C46504659
:100380005946009A00F01BFAC0197141EF1785EA2F
:1003900011533B4340D0019A52B3009A012A11DC19
:1003A0000022801A4FF0004361EB055103EA055328
:1003B0008018CDE9002341F580114246234600F024
:1003C00053FABAE72E050025401B61EB06014019E0
:1003D00041F58012001852412818A6F5001343EB8E
:1003E000020140EAD470294318EB0808644113E085
:1003F00064084FEA38084FF0000244EAC0744FEA3C
:100400000553801A61EB0301801841F580114908FA
:100410004FEA3000801859414246234603B0BDE8F8
:10042000F04F00F014BA0198012240000023D0EBF5
:10043000020263EBE07301984FEAE074381A66EB4E
:100440000401EBE783F000435CE781F0004159E7EA
:100450002DE9FE4F81EA030421F0004504F0004439
:1004600023F000414FF0000A009450EA050302D047
:1004700052EA010304D10020014603B0BDE8F08F29
:10048000C1F30A53C5F30A541C44A0FB02B3C5F3DD
:10049000130545F4801CC1F3130141F480180CFBD3
:1004A000023300FB083EA4F2F334810A930A41EAC6
:1004B0008C5143EA88530194A1FB03474FEA9C25E2
:1004C00005FB03734FEA982601FB06373D05260519
:1004D00045EA1435BBEB06016EEB0503850E920E63
:1004E00045EA8C1542EA8812A5FB0206261E67EB38
:1004F00000070C0D44EA0334A41947EB1350C1F371
:1005000013064FF0000319464FEA033343EA16532C
:1005100043EA0403019CE5FB0201A4F10C040294EC
:10052000009C4FEA0632CDE900A400F09DF9A4E753
:100530002DE9F04D81EA030404F0004B21F000475F
:1005400014464FF0000A23F0004150EA070220D081
:1005500054EA01021DD0C1F30A550246C1F313004B
:10056000C7F30A56C7F3130340F4801143F4801312
:10057000A6EB0508101BD64608F2FD3873EB010008
:1005800002D308F1010801E092185B41B8F1000FB5
:1005900003DA00200146BDE8F08D00204FF48015FD
:1005A000064607460EE0B2EB040C73EB010C04D3D5
:1005B000121B064363EB01032F436D084FEA300023
:1005C00092185B4150EA050CEDD152EA030012D0BB
:1005D00082EA040083EA0105284303D100224FF098
:1005E000004308E0101B8B4102D20122002302E0ED
:1005F0006FF0010253101AEB060047EB085110EBA5
:100600000A0041EB0B01BDE8F04D00F020B970B5D8
:1006100021F0004303430CD0C1F30A540026D4EB6D
:10062000060566EB0603D417AD1AA34102DB0020D2
:10063000014670BD001C41EB025170BDC10F80EA44
:10064000E0700844CA079623002100F0D3B896232F
:100650000022114600F0CEB80EB5C10F80EAE0705E
:100660000844CA07002140F233438DE80E000A46D1
:100670000B4600F0F9F803B000BD0EB540F233416F
:1006800002910021CDE900110A460B4600F0ECF87A
:1006900003B000BD00F0004220F00040C10DC0F3E7
:1006A000160040F400007F2901DA002070479629E7
:1006B00003DCC1F19601C84001E096398840002A68
:1006C000F4D04042704770B5C1F30A5201F00045C2
:1006D0000024C1F3130140F2FF3341F480119A4228
:1006E00001DA002070BD40F233439A42A2F2334255
:1006F00003DC524200F053F800E090402C43F1D06C
:10070000404270BD00F0004230F000400DD0C10DFD
:1007100001F5607142EA01510022C0F31600520750
:1007200042EAD0024007114370470020014670475B
:1007300030B5002904DB4FF00044404264EB010176
:10074000002B04DB4FF00044524264EB03038B4266
:1007500008BF824230BD000030B5002904DB4FF0F5
:100760000044404264EB0101002B04DB4FF00044E5
:10077000524264EB0303994208BF904230BD00002F
:10078000202A04DB203A00FA02F100207047914051
:10079000C2F1200320FA03F3194390407047202A46
:1007A00004DB203A21FA02F00021704721FA02F31B
:1007B000D040C2F120029140084319467047202AD8
:1007C00006DBCB17203A41FA02F043EAE0717047AA
:1007D00041FA02F3D040C2F1200291400843194689
:1007E00070470029A8BF7047401C490008BF20F08F
:1007F0000100704710B4B0FA80FC00FA0CF050EA27
:10080000010404BF10BC704749B1CCF1200421FAA7
:1008100004F411FA0CF118BF012121430843A3EBA2
:100820000C01CB1D0106000A002BBEBF002010BC2E
:10083000704700EBC35010440029A4BF10BC7047A0
:10084000401C490008BF20F0010010BC704710B5E3
:10085000002B08DA401C41F1000192185B411A4359
:1008600001D120F0010010BD2DE9F04D92469B46CC
:1008700011B1B1FA81F202E0B0FA80F22032904672
:10088000FFF77EFF06460F4640EA0A0041EA0B01E9
:1008900052465B46084303D130463946BDE8F08DE9
:1008A000194652EA010015D0C8F140025046FFF740
:1008B00076FF04460D46504659464246FFF760FF14
:1008C000084301D0012000E00020044345EAE07520
:1008D00026432F430A984FEAD625A0EB08000A309A
:1008E0004FEA46534FF0000245EA47554FEAD724F6
:1008F00002D500200146D1E7010550196141DDE92B
:10090000084500196941BDE8F04DA0E7064C074DC8
:1009100006E0E06840F0010394E8070098471034CF
:10092000AC42F6D3FFF708FCE0650008006600085B
:1009300070B501EB020410F8015B15F0070301D15B
:1009400010F8013B2A1106D110F8012B03E010F832
:10095000016B01F8016B5B1EF9D12B0705D4002355
:10096000521E0FD401F8013BFAE710F8013B02F1E7
:100970000202A1EB030303E013F8015B01F8015B42
:10098000521EF9D5A142D6D3002070BD0121062008
:1009900002F066BF0021072002F062BF012107209C
:1009A00002F05EBF0021062002F05ABFB0F5000F32
:1009B00001DA80F00040704710B50121082002F0F4
:1009C0000BFD0B4C042123460322080200F024FDFA
:1009D000032223461021104600F01EFD012120466F
:1009E00000F0CAFD2046BDE81040022100F0C4BD61
:1009F000000C014010B510A001F010F901F094F8BE
:100A000003F0E2FA02F010FF00F09AFAFFF7D4FFC9
:100A100003F090FFFFF7BEFFFFF7C4FF03F081FF75
:100A200000F09EFA4FF4FA7000F010FB02F02EFD79
:100A30000349888010BD0000416374696F6E000037
:100A4000380000202DE9FC5F07460021F9A2084686
:100A500001F008F9DFF8E4B3F94C00BF00F05EFBE9
:100A600010B1012000F0C8FB062F05D1092002F0CB
:100A700057FC08B100F07CFA642000F0E7FA02F0BD
:100A8000D3FD9BF8000000287DD0082F38D2DFE886
:100A900007F037040A11181E2026EA48E061EA48E8
:100AA0002062C82004E0E948E061E748206228208D
:100AB000E06018E0E348E061E54820624FF416701A
:100AC000F6E7E448E061E04820623C20F0E7E248D5
:100AD00006E0E248E061DC4820621E20E8E7E048EA
:100AE000E061D9482062DF4DDF4E287A3268A0F1FC
:100AF0007F01914208DC5242914205DB00203FE039
:100B0000D048E061D248CBE7FF2848D000284FF01A
:100B10000E005AD002F004FCB0B3287A7F38FFF7F9
:100B20008DFDFFF743FF8046E8797F38FFF786FDAC
:100B3000FFF73CFF4146FFF717FB8046287AFFF797
:100B400086FDCA49FFF762FB4146FFF79BFBA062A7
:100B500081466169E06A8846814212DA40428045F6
:100B60000FDDE068FFF76AFD4946FFF755FB814658
:100B70004046FFF763FD4946FFF7F6FAFFF78AFDA7
:100B80006061E87901E0E8E017E03268A0F17F01F8
:100B9000914228DC5242914225DB002060E00E2089
:100BA00002F0BEFB48B16169E06A8142E9DA404285
:100BB0008142E6DDE0680844E2E7287A7F38FFF703
:100BC0003DFDE169FFF728FBD8E702F0A9FB00280B
:100BD000F3D0E16A60698842D3DA49428842D0DDC5
:100BE000E168401ACCE7FF283DD000284FF00E0006
:100BF00053D002F095FBA8B3287A7F38FFF71EFD8B
:100C0000FFF7D4FE8046E8797F38FFF717FDFFF73E
:100C1000CDFE4146FFF7A8FA8046E879FFF717FDB9
:100C20009249FFF7F3FA4146FFF72CFB60628146D9
:100C30002169206B8846814254DA4042804551DD6B
:100C4000E068FFF7FBFC4946FFF7E6FA81464046BD
:100C5000FFF7F4FC4946FFF7D9FA00BFFFF71AFD8A
:100C600020613FE027E00E2002F05AFB48B1216BE3
:100C70002069884236DA4942884233DDE168401A09
:100C8000EEE7E8797F38FFF7D9FCE16981F00042AF
:100C900001461046FFF7C0FAE0E702F041FB0028EA
:100CA000EFD0216B206988421CDA4942884219DD65
:100CB000E1680844D4E7E8797F38FFF7CDFC804647
:100CC000E069894680F00040FFF71CFD4FF03332A9
:100CD000674BFFF7BDFB42464B46FFF7B9FBFFF7FB
:100CE000F2FCBDE7687931687F38884204DC49420C
:100CF000884201DB00200AE0FFF7A0FC216A81F0B6
:100D0000004201461046FFF787FAFFF7C3FCA061D7
:100D1000FFF7A2FC064689466069FFF79DFC824604
:100D20000D462069FFF798FCCDE9006952462B4635
:100D300003F080FF00F05AFA78B1082002F0F0FAD0
:100D400010B100F077FA08E0062002F0E9FA10B1DD
:100D500000F01AFA01E000F05BFA072002F0E0FA76
:100D600030B903F0FDFD18B9207800283FF476AEC5
:100D70000125052F4AD007DC012F08D0022F1BD0F8
:100D80003C4E042F4FD11AE0062F4CD146E00020F4
:100D9000CDE9000002460346014603F04BFFD4E9CB
:100DA0001601C4E91001D4E918010022324BFFF703
:100DB000A9FAC4E9120136E0D4E9160128E00021BD
:100DC000C4E91211C4E91011D4E9142308463146CC
:100DD00000F07AF90022294BFFF7BEFC0AD9D4E9CA
:100DE00014230020314600F06FF90022244BFFF756
:100DF0009FFC04D823490020C4E914012571012077
:100E000003F008FF022003F005FF0CE0002001467C
:100E1000C4E91001D4E91801C4E91201D4E91A01A6
:100E2000C4E914012571002000F0E6F9BDE8FC5F7B
:100E300000F0F2BE41646A75737400000600002081
:100E400060000020000020410AD7233C0000E04061
:100E50000AD7A33C00006041000050410000C040A0
:100E60000000A04008020020080000200000FE4210
:100E70003333E33F006066400000594000002E40DD
:100E800000002EC0006066C0132002F0DDBF0178B4
:100E90004078090209B2084300117047FEE70000DC
:100EA0007FB50121082002F08BFA0024ADF806403E
:100EB0004FF47A70ADF80400ADF8024040F65F10D0
:100EC000154DADF800008DF808406946284603F03E
:100ED000D1FC1148243004800121284603F0E0FAB7
:100EE00032208DF80C0001208DF80F008DF80D4098
:100EF0008DF80E404FF4407001F05AF903A801F04C
:100F000025F901221146284603F0A0FB00212846BE
:100F100003F0CCFA7FBD0000000C00400349002024
:100F200008800121024803F0C1BA000044000020FB
:100F3000000C00400021014803F0B8BA000C00404A
:100F400010B50121102002F047FA03221021BDE85C
:100F50001040024B480200F05FBA00000010014050
:100F60004FF40051014800F0EABA000000100140BF
:100F70004FF40051014800F0FFBA0000001001409A
:100F800010B54FF4003000F011F8074C1021204646
:100F900000F0F2FA152000F059F82046BDE81040A4
:100FA000102100F0CCBA000000080140C10002D5B9
:100FB00002490860704702494860704704040240D3
:100FC000000002400029016802D041F0010102E066
:100FD0004FF6FE72114001607047002A026801D08E
:100FE0000A4300E08A430260704730B5036847F661
:100FF000F07293430C6A8A682243D1E904452C437A
:1010000022438C692243CC6922434C6A22438C6A76
:1010100022431A430260CA6842600A6882604968D3
:10102000C16030BD41607047054841790548C278CC
:10103000914201D101207047C1700020704700002B
:101040000802002004000020704700003EB5002583
:101050000446012834D90121202002F0B1F90020F2
:10106000ADF80600641EADF80200ADF8044040F68D
:101070005F11144CADF800108DF808006946204649
:1010800003F0F8FB0121204603F00AFA0121204673
:1010900003F00CFA0121204603F033FA0128F5D1C0
:1010A0006D1CEDB20121204603F0FAF9002DEDD0C0
:1010B0000121204603F0F4F90021204603F0F6F95F
:1010C0003EBD00000014004070B5114EFFF7BAF9A4
:1010D00004460D4600220F4BFFF73EFB4FF0000287
:1010E00005D8334620462946FFF7ACF90BE00A4BFA
:1010F00020462946FFF71CFB07D200223346204634
:101100002946FFF7FFF804460D462046294670BDE4
:101110000080764000806640008066C0014800780C
:10112000704700003800002010B502F0AFF9154CF0
:1011300020816189B1F5806F20D001F5E173002233
:10114000984202D9E088401C05E000F5E170884231
:1011500003D2E088401EE080227020786178084346
:101160000CD1A078E188884202D900F063F805E04C
:1011700002D200F009F801E000F04AF8208960810D
:1011800010BD00003800002010B50021012002F041
:1011900067FB01215A230022084600F073FC024934
:1011A0000120C87010BD00003800002010B50923D0
:1011B00001220D490A280ED2DFE800F005070505D7
:1011C000090B101214098A7005E0082002E08B70E8
:1011D00001E0102088700020087010BD0720F9E79A
:1011E0001820F7E71B20F5E7380000200148407879
:1011F0007047000038000020014948707047000027
:10120000380000200148C0887047000038000020E6
:1012100010B5002301211A46084600F033FC0121D5
:10122000084602F01DFB02490120087010BD0000B5
:101230003800002010B50021012002F011FB01222E
:101240005A231146104600F01DFC02490020C870C8
:1012500010BD00003800002070B5012000F036F805
:10126000124901200870124C124D0FE0287810B17D
:10127000114800F0CDFD02F0D7F92078012811D0F7
:1012800090B10EA20021062000F0ECFC002002F03C
:1012900047F80028EAD00A4900200870BDE87040ED
:1012A000FFF7AABF07A2EDE707A2EBE76000002067
:1012B0000C0000200600002008020020443100003D
:1012C000040000204433000044320000014908605B
:1012D000704700001404014002490A6802430A6092
:1012E000704700001004014030B51A498379026844
:1012F00053B30B6893430B600A1D13680468A34340
:10130000136002790A441368046823431360114A86
:10131000083213680468A3431360131D1C68056832
:10132000AC431C604479102C05D021440A68006845
:1013300002430A6030BD11680468214311601968D6
:1013400000680143196030BD007908440168914389
:10135000016030BD0004014030B587B000F01EF9D7
:1013600000F00CF90121022002F02AF801210420EA
:1013700002F026F8684603F0CBFA00204FF6FF741F
:10138000ADF80000ADF80440214DADF80600ADF811
:1013900002006946284603F06DFAADF804401D4C82
:1013A0006946204603F066FA00231A4603212846C0
:1013B00003F091F800231A460321204603F08BF82E
:1013C00003A803F03BF90F20ADF8140003A9284649
:1013D00003F09EF803A9204603F09AF8012128465D
:1013E00003F05EF80121204603F05AF8084847F65A
:1013F000FF712430018007482430018001212846F4
:1014000003F054F80121204603F050F807B030BD36
:10141000000800400004004030B404460448048042
:10142000C1708270014630BC184600F003B800005D
:10143000460000202DE9F041CB78002503F00F0293
:10144000DB0601D58B781A430B884FF00F0813F099
:10145000FF0F4FF0010C1CD0D0F800400E880CFAA2
:1014600005F31E409E4210D1AF0008FA07F624EAA9
:10147000060602FA07F43443CE78282E02D0482E0E
:1014800002D002E0436100E003616D1C082DE5D34A
:1014900004600B88FF2B1DD94468002505F1080660
:1014A0000CFA06F30E881E409E420FD1AF0008FAD8
:1014B00007F624EA060602FA07F43443CE78282E0B
:1014C00000D14361CE78482E00D103616D1C082DF8
:1014D000E4D34460BDE8F081F0B5144C002801DA93
:1014E000E36900E06368420D120185B2C0F3015761
:1014F0009540C0F30346032F05D0C2020AD503224C
:10150000B240934307E023F07062636823F0706396
:10151000636002E0AB4343F0706201B12A430028EC
:1015200001DAE261F0BD6260F0BD00000000014040
:101530000246002092680A4200D0012070474161B3
:101540007047000010B50B4C0322234618214FF4BE
:101550002040FFF761FF1021234603220802FFF716
:101560005BFF234603220421BDE810400803FFF778
:1015700053BF0000000C01400161704710B501210C
:10158000042001F029FF03220421BDE81040024B92
:10159000C020FFF741BF00000008014010B5012145
:1015A000082001F019FF03220421BDE81040024B7E
:1015B000C020FFF731BF0000000C01400F2002F0F7
:1015C00043BC0E2002F040BC2DE9FE40FFF7F6FFC1
:1015D0000446FFF759FC44EA400402F021F944EACA
:1015E000800403F0BDF944EAC004FFF7EAFF44EACF
:1015F0000010C4B200F010FB01F0F4FF024600211D
:10160000084600F03AFB22460021062000F035FB98
:10161000684600F041FB01210020029A00F02DFBFA
:1016200001F034FF02460121062000F026FB0120D4
:1016300001F06EFFFFF747F802460221002000F09C
:101640001CFB022001F064FFFFF73DF80246032176
:10165000002000F012FB58A20321062000F002FB3C
:10166000012001F05DFE08B101251DE0082001F018
:1016700057FE08B1022517E0062001F051FE08B11F
:10168000032511E00E2001F04BFE08B106250BE00A
:101690000F2001F045FE08B1052505E0052001F009
:1016A0003FFE002892D0072500F0A6FB012003F0A2
:1016B000B1FA022003F0AEFA0126414C082D77D290
:1016C000DFE805F076040E1F76334A630020C4E994
:1016D0001000C4E91200C4E91400FFF75FF90BE041
:1016E00038490020C4E910013749C4E912013749DB
:1016F000C4E91401FFF74EF903F013F9FFF752F9AB
:1017000056E033490020C4E910013249C4E912010E
:101710003149C4E91401FFF73DF903F002F9FFF77D
:1017200041F90620FFF742FD42E02C480021C4E9C0
:101730001010C4E916102A48C4E91210C4E91810A0
:101740002548C4E91410C4E91A10FFF71FF9042052
:10175000FFF72CFD66702BE022490020C4E9100140
:101760002149C4E912012149C4E91401FFF70EF926
:1017700003F0D7F8FFF70EF90420FFF717FD072055
:1017800001F0CEFD0028FAD012E019480021C4E98A
:101790001010C4E916101248C4E91210C4E9181058
:1017A00008460D49C4E91401C4E91A01002060701B
:1017B00026712846FEBD0000426C756500000000E1
:1017C000600000200040A7400016BC40008056404A
:1017D0000000594000749240006066C0008CA34035
:1017E0008024C64000C6A94000B0BC40008056C05E
:1017F0000034A1402DE9F04F87B00C4600219146FE
:101800009A460491FEF728FFDFF8608206460F46ED
:10181000C8E916012046FEF71FFF0446C8E9180173
:101820000D464846FEF718FF0690C8E91A018B4698
:1018300088F803A008F1800995E03220FFF706FC44
:1018400001F0F2FE504602F04DF85246304639465D
:1018500000F0ECFEC9E9020152462046294601F09B
:1018600047F9C9E9040152465946069800F018FEA6
:10187000C9E90601D8E9143203928DE80B00D9E9D1
:101880000201D9E9042303F037FABAF1200F68D234
:10189000DFE80AF06763106310171D1022634D27FD
:1018A0004D314D4D632263556367674567676767D1
:1018B00067676710D8E912232046294633E00020E5
:1018C00049E003F04DF8002852D10B2023E0D8E97D
:1018D0001023304639462EE0D8E9102330463946E9
:1018E00021E098F80100A8B9FFF7CEFA30BB98F8CC
:1018F000010078B92FE001F075FE58B101F072FED9
:1019000010F5487F06DDD8E914010022584BFEF798
:1019100023FF2DD3092001F003FD78B91BE0D8E99E
:1019200014010022534BFEF703FFC8D820E0D8E98A
:10193000122320462946FEF70FFFC0D818E0D8E949
:10194000160100224C4BFEF77DFDD8E91023FEF76F
:10195000EFFEB4D20CE0049005E0092001F0E0FCB9
:101960000490049820B998F8000000283FF465AF6F
:1019700098F80000002840D1BAF1140F3DD2DFE8FA
:101980000AF03C0A3C193C2E3C3A3C3F3C493C574F
:101990005E683C3C3C6B0020CDE9000002460346FB
:1019A000014603F047F9C8E9124507B0BDE8F04F1A
:1019B00002F0BBBF0020C8E91067CDE90000024675
:1019C0000346014603F036F902F0ABFF4FF47A709C
:1019D000FFF73CFB07B0BDE8F04FFEF7DBBF444626
:1019E0000022D4E91601C4E91001D4E91801234BFF
:1019F000FEF788FC19E0C8E91C6707B0BDE8F08F66
:101A0000C8F87060C8E91D74C8F87C500699C9E927
:101A1000001BF2E744460022D4E91601184BFEF7FA
:101A200071FCC4E91001D4E91801C4E91201E4E72A
:101A3000C8F84060C8E91174C8F84C50DDE740466A
:101A4000C0E91C67C8F84060C8E91E45C8F8447082
:101A5000D3E7C8E91E45D0E70020CDE900000246E3
:101A60000346014603F0E6F8C7E7000060000020E7
:101A7000000034C0000054C0000024400000594061
:101A800000407F402DE9F041DFF89480254E0C4660
:101A900015461F46022817D001283ED11A460421B8
:101AA000304601F02BFB012C27D0022C35D14FF012
:101AB0004001404675B3FFF75FFD3A4608213046C6
:101AC000BDE8F04101F01ABB012C0AD0022924D153
:101AD0004FF0100140466AB1FFF74EFD3A46022131
:101AE000EDE71A460121304601F008FB4FF00801EE
:101AF00035B10AE0FFF723FDF0E74FF0200125B9EB
:101B00004046BDE8F041FFF71ABD4046BDE8F04150
:101B1000FFF732BDFFF713FDCFE7BDE8F08100000E
:101B200000180140002C014010B54FF47A720F21CB
:101B3000054801F035FB03221021BDE81040034B9E
:101B40007820FFF769BC0000002C0140001801401C
:101B5000FEE7000030B58DB04FF4164002F01CFFD8
:101B600001224021284802F0C9FF0121084601F066
:101B70001BFC002025490F240191CDE902040A90A5
:101B8000802105912021CDE907011F49069004908D
:101B9000091D4FF440501E4D0091099021462846E2
:101BA000FFF740FA012202212846FFF716FA4FF408
:101BB0000030FFF7FBF969462846FFF716FA8DF863
:101BC0002C4001208DF82F000BA800F0BFFA012156
:101BD000042001F001FC0F4C10212346032208468B
:101BE000FFF71AFC01212846FFF7ECF910212046E7
:101BF000FFF7C2FC1420FFF729FA10212046FFF757
:101C00009EFC0DB030BD00000038014034060020BD
:101C1000580002400008014000F0D4BA10B5044654
:101C200000F0D0FA22460021BDE81040084600F03E
:101C300019B8000010B50121080201F0CDFB074BD7
:101C4000032210210F20FFF7E7FB00F0EFFA00213D
:101C5000BDE8104002A2084600F004B80020014090
:101C60004C43440010B50907C006090E000E00F0F1
:101C7000C1FBBDE8104000F051BB7FB50D460446E6
:101C800011460122684603F02FFC6A462946204689
:101C9000FFF7E8FF7FBD00003EB50446684600F050
:101CA00019F80B499DE80D000D68401B4D688968C7
:101CB000521B591AB42902DBA1F5B47104E011F1E9
:101CC000B40F01DA01F5B471A160C4E900023EBDB0
:101CD00028060020F0B500221D4B05461324985C11
:101CE000FA2801D0521C0EE098184178FF2901D043
:101CF000921C08E08178322901D0D21C03E0C07820
:101D00000E2805D0121D92FBF4F004FB1022E6E72A
:101D1000101D90FBF4F104FB11001844FFF7B7F815
:101D2000064602F1080090FBF4F104FB1100184490
:101D3000FFF7ADF807460C3292FBF4F004FB1020DD
:101D40001844FFF7A4F82E60C5E90170F0BD00004B
:101D50001406002010B58EB023A0FFF75FFF01210D
:101D6000084601F021FB4FF4E13002F047FE01226A
:101D700040211E4802F0C2FE00201D4901910A9038
:101D800080210591039002902021CDE90701174998
:101D90000690091D04904814164C0091099069465C
:101DA0002046FFF722F913212046FFF73BF90121D6
:101DB0002046FFF707F92820FFF748F90BA8FFF79F
:101DC00089FF0BAB0A4C07CB04F1140307C328208F
:101DD000FFF73CF90BA8FFF77DFF0BAB143407CBE3
:101DE00007C40EB010BD00004D544900004400402F
:101DF000140600206C0002400EB56846FFF76AFF2B
:101E000002489DE80E000EC00EBD0000280600200E
:101E10002DE9FC47C34C0546C3482178012917D05A
:101E2000D9B1C2486061C248A0619620DFF804932E
:101E30006060287AD9F80020A0F17F01DFF8F8A2CD
:101E4000002691420FDC524291420CDBE66046E0F4
:101E50006061BA48A061C820E8E76061B848A06145
:101E60004FF41670E2E7FF2847D000284FF00E002D
:101E700059D001F055FAE8B3287A7F38FEF7DEFB37
:101E8000FEF794FD0746E8797F38FEF7D7FBFEF7AB
:101E90008DFD3946FEF768F90746287AFEF7D7FB2D
:101EA0005146FEF7B3F93946FEF7ECF92062804659
:101EB000E768606A874212DA404287420FDD606855
:101EC000FEF7BCFB4146FEF7A7F980463846FEF711
:101ED000B5FB4146FEF748F9FEF7DCFBE060E87928
:101EE000D9F80010A0F17F028A422ADC49428A42D6
:101EF00027DB00E00FE0A660A0E00E2001F010FA62
:101F000048B1E168606A8142E9DA40428142E6DD37
:101F100060680844E2E7287A7F38FEF78FFB616942
:101F2000FEF77AF9D8E701F0FBF90028F3D0E16871
:101F3000606A8142D3DA40428142D0DD6068081A8B
:101F4000CCE7FF283BD000284FF00E0051D001F025
:101F5000E7F998B3287A7F38FEF770FBFEF726FD85
:101F60000746E8797F38FEF769FBFEF71FFD394623
:101F7000FEF7FAF80746E879FEF769FB5146FEF7E7
:101F800045F93946FEF77EF9E0618046A768A06A08
:101F9000874253DA4042874250DD6068FEF74EFBCD
:101FA0004146FEF739F980463846FEF747FB414681
:101FB000FEF72CF9FEF76EFBA0603FE027E00E2055
:101FC00001F0AEF948B1A16AA068884236DA494208
:101FD000884233DD6168401AEEE7E8797F38FEF722
:101FE0002DFB616981F0004201461046FEF714F9AD
:101FF000E0E701F095F90028EFD0A16AA0688842D7
:102000001CDA4942884219DD61680844D4E7E8795E
:102010007F38FEF721FB07466069884680F0004064
:10202000FEF770FB4FF03332464BFEF711FA3A469B
:102030004346FEF70DFAFEF746FBBDE76879D9F88F
:1020400000107F38884204DC4942884201DB266167
:102050000AE0FEF7F3FA0146A06980F00040FEF7BF
:10206000DBF8FEF717FB20610D2001F059F908B1EC
:10207000022020700B2001F053F908B101202070DC
:102080000A2001F04DF900B12670082001F048F94E
:1020900010B1FFF7CFF808E0062001F041F910B1C8
:1020A000FFF772F801E0FFF7B3F8092001F038F903
:1020B00010B1FEF75DFF05E0072001F031F908B12E
:1020C000FEF74EFF042001F02BF910B102F029FCBD
:1020D00005E0022001F024F908B102F026FC0520F9
:1020E00001F01EF910B1FEF751FC05E0032001F0EC
:1020F00017F908B1FEF756FC2069FEF7ADFA07465E
:102100008846E068FEF7A8FA05460E46A068FEF786
:10211000A3FACDE900782A46334602F08BFDBDE8EC
:10212000FC8700000C0000200000884100004040B7
:102130000AD7233C080000200000FE420AD7233DB6
:102140008FC2F53C3333E33FFEE7704770B50F2194
:10215000C478027801234FF0E026DCB1124C2468E9
:1021600004F4E064C4F5E064250AC5F10404E94020
:102170004578A54084780C402C4321010B4C115527
:10218000007800F01F018B40400906EB8000C0F88A
:10219000003170BD02F01F008340500906EB800043
:1021A000C0F8803170BD00000CED00E000E400E0FC
:1021B0000249084302490860704700000000FA0520
:1021C0000CED00E030B40021084B0A465FF000003F
:1021D00003EBC004401CC0B262548028F8D3491CF1
:1021E000C9B20829F2D330BC00F098B8110200201F
:1021F00010B57F2816D83F2914D80723A3EBD103A5
:1022000001F00701C1F107040121A140064CDBB236
:1022100004EBC000002AC25CC9B201D00A4300E04E
:102220008A43C25410BD00001102002010B53A4C80
:1022300020212046FFF7A0F910212046FFF77FF963
:1022400002212046FFF798F90021AE2000F0F2F8B5
:102250000021D52000F0EEF80021502000F0EAF82F
:102260000021A82000F0E6F800213F2000F0E2F86D
:102270000021D32000F0DEF80021084600F0DAF853
:102280000021402000F0D6F800218D2000F0D2F887
:102290000021142000F0CEF80021202000F0CAF820
:1022A0000021022000F0C6F80021A12000F0C2F8B1
:1022B0000021C02000F0BEF80021DA2000F0BAF8BA
:1022C0000021122000F0B6F80021812000F0B2F8C1
:1022D0000021EF2000F0AEF80021D92000F0AAF88C
:1022E0000021F12000F0A6F80021DB2000F0A2F888
:1022F0000021302000F09EF80021A42000F09AF880
:102300000021A62000F096F80021AF2000F092F8FE
:10231000BDE81040FFF756BF0014014070B5104EE5
:10232000002404F1B0000021C0B200F083F80021C5
:10233000084600F07FF80021102000F07BF800250F
:1023400006EBC5000121005D00F074F86D1CEDB2D4
:10235000802DF5D3641CE4B2082CE2D370BD0000DC
:10236000110200202DE9FF4F203A0C461F468946F6
:1023700002F0FF0A0025DDF834B032E00C2F09D05E
:102380001A4901EB0A104FF00008465D300607D5E8
:102390005A4609E016490AEB4A0001EB8000F2E7D1
:1023A000BBF1000F12D0002221460098FFF720FF5A
:1023B0007006641C060EE4B2A4EB0900B84207D113
:1023C00000984C46401CC0B2009008E00122EBE7A8
:1023D00008F1010000F0FF08B8F1080FD6D36D1C1A
:1023E000EDB2BD42CAD3BDE8FF8F0000C85E000851
:1023F000545A0008F8B504460D461646012714E065
:102400007A2C02D900241035EDB23A2D03D90024DC
:102410002546FFF7D7FE009732781023294620463D
:10242000FFF7A0FF0834E4B2761C30780028E7D12B
:10243000F8BD000070B5194E054600294FF00201A5
:10244000304602D0FFF798F801E0FFF778F8012155
:102450003046FFF774F8002404213046FFF76FF888
:1024600028064FF00801304602D5FFF785F801E055
:10247000FFF765F804213046FFF77EF86806641C14
:10248000050EE4B2082CE7D301213046FFF774F8BB
:102490003046BDE870400221FFF76EB800200140D1
:1024A0002DE9F047804689461646574D08200723F8
:1024B00004210322DFF84CA14FF00A0C05F58074CB
:1024C000182E3CD2DFE806F00C3B502912181F23CF
:1024D000503B3B292C2F3A3B503B3B3B533B3B3241
:1024E0004A484B49C4E91401AA6328E0494A00213B
:1024F000C4E91412A86322E047494FF03330C4E91D
:1025000014010520F6E74FF03330434901E03F481E
:102510003F49C4E91401AB6311E03C483F49E1E79E
:102520003A483E4A26E039483C4902E03C494FF0EF
:102530003330C4E91401C5F838C000E0A963D5E917
:10254000142340464946FDF780FF0022354BC4E97D
:102550001801FEF701F94FF000020ED8D4E9180176
:102560005346FDF76FFF14E02849294AC0E72C4A7B
:102570004FF03330C4E91402E0E7D4E918012A4BE4
:10258000FEF7D6F807D2D4E9180100225346FDF72A
:10259000B9FEC4E91801D4E91823C4E91623D4E923
:1025A0001401FDF755FFC4E91A0107468846A86BD8
:1025B000FEF752F83A464346FEF7BAF8A86B09D33D
:1025C0004042FEF749F8D4E91A23FEF7C5F805D2D0
:1025D000A86B4042FEF740F8C4E91A01132E07D059
:1025E00009DC052E07D0102E05D1FEF7E7FF10B14C
:1025F0000020C4E91A00D4E91A0181F00041BDE8C5
:10260000F087000000807640600000209A99999938
:102610009999D93F0000E03F3333D33F9999C93F9F
:102620003333C33F00806640008066C02DE9FC5F05
:10263000FB4D904605F18004182A1BD2DFE802F01A
:102640001A0C1A0F14657A686B6E71747A818E9108
:10265000989F1AA68E1A1A880022F24B83E0F14B3B
:102660000022C5E9182305E00022EE4B64E000BF1C
:10267000C4E90023D5E91E23DFF8A4B3C5E91C2370
:10268000ABF1800BDBE91023CDE90023FDF7DDFE84
:1026900006460F46C5E91E01D4E9040132463B4611
:1026A000FDF730FEC4E9040102460B46D5E91A01E4
:1026B000FDF7CEFE81468A46D5E9180132463B46F3
:1026C000FDF7C6FE4A465346FDF71CFE5B46C4E9CD
:1026D000020181468A46D3E918014246D3F8548064
:1026E0004833DFF844E3B3E8C010182A71D2DFE8BA
:1026F00002F07070707054719AA9BFCCDCFDFCFBC5
:1027000070FAF9F8F770F67070F50022C74B31E0F7
:102710000022C74B17E00022C64B14E00022C64B34
:1027200036E00022C54B0EE0BE4B0022C5E918235F
:10273000C34B9DE7BF4B0022C5E918230022C14BC4
:1027400096E7C14B0022C5E918230022BF4B8FE753
:10275000B94B0022C5E91823BD4B89E70022B74BCE
:102760000FE0B64B0022C5E918230022B94B7FE7E2
:10277000B94B0022C5E918230022B84B78E7A94BD2
:102780000022C5E918230022B54B71E7A54B0022B2
:10279000C5E918230022B34B6AE7DFF8CC82002298
:1027A0004346FDF74FFE32463B46FDF7C1FF9DD243
:1027B000A8490020C4E90001DBE91823DBE9120184
:1027C000FDF740FE00224346FDF79CFDD5E91823A6
:1027D00026E098E001F024F8A44F4FF0333618B10A
:1027E0009BF80710584671B1D4E9000132463B46C8
:1027F000FDF72EFED4E90223FDF7AEFFD7D29BF8FA
:10280000070050B158E10121C171D0E916120164ED
:1028100000208749CBF84420D1E032463B46F0E027
:10282000FDF716FEBCE0924DD4E9000100222B46D4
:10283000FDF77EFE4A465346FDF78EFFE2D20022A8
:102840002B462DE0DFF82C8200224346FDF7FAFDEF
:1028500032463B46FDF76CFFD4D2DBE91823DBE9B7
:102860001201FDF7EFFD00224346FDF74BFD34E07A
:10287000814DD4E9000100222B46FDF759FE4A465E
:102880005346FDF755FF3ED2D9E700227346FDF7C8
:10289000D9FD32463B46FDF75FFF34D26A4B00223A
:1028A000D4E90001FDF744FE7AE0DFF8D081002290
:1028B0004346FDF727FD32463B46FDF74DFF1FD24D
:1028C00000208BF80500DBE91823DBE91201FDF796
:1028D000B9FD00224346FDF7B5FD08E063E0E1E005
:1028E00092E07FE074E06DE056E029E00CE0D5E98D
:1028F000186282F0004502460B46304629468FE7B3
:1029000001208BF80500D7E0D4E900014FF0FF3536
:102910002A46FDF77CFE4A465346FDF71DFF06D2C8
:10292000D4E900012A46FDF772FEC4E902019BF8D2
:10293000051081B39BF8010068BB0022504BAFE744
:102940000022504B5E4660464146FDF7F1FE06D33D
:10295000D6E9140100221346FDF7FEFE02D2002044
:102960003B4901E03D490020C4E90001464FD6E95A
:10297000120100223B46FDF7DBFE0CD2002043494A
:102980000246C5E91801D6E912013B46FDF75AFD9A
:1029900000223E4B44E714E0D4E9000181F00041FD
:1029A000C4E9020188E00022394B60464146FDF748
:1029B000BFFE06D223490020C4E900013349C5E91E
:1029C000180179E000F00EFE48BB0022284B67E7B3
:1029D0000022304B60464146FDF7AAFE6CD2002033
:1029E0001C495CE0154DD4E900016D4200222B46E4
:1029F000FDF72EFD4A465346FDF79AFE5CD20022B3
:102A00002B46D4E900010BE70022114B3046394632
:102A1000FDF78EFE4FF0000040D21F493FE04BE033
:102A2000E000002000002440000069400000224037
:102A3000000034400000284000001C4000002040FE
:102A400000E8AC400040AF40000018400070B740C4
:102A500000408F40004CBD40000030400088B34033
:102A60000070A7400088A340000079403333E33F63
:102A70000000084000207C40000008C000407F406B
:102A80000000144000005EC00040BF4000002C4029
:102A9000000044C0002062C000409F401349C4E9C8
:102AA000000109E0DDE9000100227346FDF754FE54
:102AB00002D20920FEF77AFBD4E90201D4E900230F
:102AC000FDF74AFED4E900010AD3D4E9022381F0DC
:102AD0000041FDF741FE05D2D4E9000181F000413B
:102AE000C4E90201D4E90201BDE8FC9F0070A740DF
:102AF0002DE9F05F9046F84CB8F1180F14D2DFE8DA
:102B000008F0130C8C5C626A6D706D777A7D838639
:102B10008C678F1395139C13136DF04B0022C4E93F
:102B20000623EF4BC4E90E23D4E90C23C4E90A239E
:102B3000EC4BD3E91223FDF788FC05460E46C4E9A9
:102B40000C01D4E912012A463346FDF7DBFBC4E948
:102B5000120102460B46D4E90801FDF779FC07464D
:102B60008946D4E906012A463346FDF771FC3A4608
:102B70004B46FDF7C7FBDB4AC4E9100102F15007E1
:102B800081468A4697E88310D2E91056A8F10208D8
:102B9000D54BDFF858E34FF0010BB8F1160F76D2A2
:102BA000DFE808F0517563A5B8D4E575FE75FD75CD
:102BB000FCFBFAF97575757575F8CD4B0022C4E903
:102BC0000623CC4BAEE7CC4B002200BFC4E9062362
:102BD0000022CA4BA6E70022C94B04E00022C94BE1
:102BE00026E0C94B0022C4E906230022C74B99E71F
:102BF0000022C74B96E70022C14BE7E7C54B0022F6
:102C0000C4E90623C44B8DE70022B94BDEE7C14B74
:102C10000022C4E90623C14B84E70022AF4BD5E76D
:102C2000B84B0022C4E90623BD4B7BE7B04B002222
:102C3000C4E906230022BB4B74E7B24B0022C4E96F
:102C40000623B94B6EE70022B84BFDF771FD07D2A2
:102C5000D4E90E010122FDF7DAFC0022B44B17E0A3
:102C6000D4E90E0181F0004129E10022B14BDFF8E7
:102C7000748238466146FDF745FB2A463346FDF728
:102C800057FD08D288F805B00022AB4B6CE040E05D
:102C9000FDF74EFC13E1002088F805000246944E33
:102CA000D4E90E01764245463346FDF7D1FBD4E91F
:102CB0001023FDF73DFD07D2D4E90E010022334673
:102CC000FDF7C6FBC4E91001D5E9140100229B4BB6
:102CD000FDF742FD06D3D5E914010022984BFDF71C
:102CE00027FD16D2D4E90E01002233462BE009203D
:102CF00000F016FB7B4D297A08430AD0D4E90E0177
:102D00004FF033328F4BFDF7A3FBC4E9100185F878
:102D100008B037E100229946DFF8C881384661469D
:102D2000FDF7F0FA2A463346FDF716FDF1D2D8E951
:102D30001623D8E91001FDF785FB00224B46FDF76D
:102D400081FBD4E90623FDF783FBB8E0784DD4E995
:102D50000E0100222B46FDF7EBFB4A465346FDF7DA
:102D6000E7FC4DD200222B46D4E90E0190E7002269
:102D7000F1467346DFF86C8138466146FDF762FB29
:102D80002A463346FDF7D4FC19D2D8E91623D8E9F0
:102D9000100106E058E0E7E072E06EE063E030E04A
:102DA00010E0FDF74FFB00224B46FDF7ABFA0B4658
:102DB000D4E90651024681F000412846C3E70020CD
:102DC00001467CE0604DD4E90E0100222B46FDF760
:102DD000AFFB4A465346FDF7BFFC07D2D4E90E01CC
:102DE00000222B46FDF7A4FBC4E910013D49002257
:102DF000564BD1E91201FDF79BFC01D2FDF7C6FD50
:102E0000C0E00022524B374DFDF792FC06D3D5E9C6
:102E1000140100221346FDF79FFC07D2D4E90E01EE
:102E20000122FDF7F4FB00224A4B31E7D4E90E0101
:102E30006FF001052A46FDF7EAFBD4E91023FDF700
:102E40008BFC0CD22A4615E00022434BFDF770FCA8
:102E500006D234480021C4E90E10C4E9101091E0F4
:102E6000002031498CE000223C4BFDF761FC04D28C
:102E70004FF0FF32D4E90E011FE0D4E90E011EE04D
:102E80000022374B174DFDF767FC08D3D5E9140135
:102E90000022344BFDF74CFC01D3687AD8B1FEF721
:102EA0008DFB10B1687A68B16CE0D4E90E010022A4
:102EB000284BFDF7CDFA6FF00102FDF7A8FBC4E93E
:102EC00010015FE085F809B00020C5E91200114942
:102ED000C4E9060152E055E06001002000003040E6
:102EE000009491406000002000C0774000908D4029
:102EF000000020400082B44000002C40004CBD4047
:102F00000000184000002440000022400070B7403C
:102F10000088B340000028400088A3400058BB4010
:102F20000070A7400040AF4000408F400040554037
:102F3000000008C000C07240000018C000005740E8
:102F400000C055403333D3BF0000144000BAC34023
:102F500000005EC000000840000044C0000059C0EE
:102F600000406540004065C00022134B28463146B2
:102F7000FDF7DEFB02D20020104901E010490020DD
:102F8000C4E90E01D4E91001D4E90E23FDF7E4FBF6
:102F9000D4E90E010AD3D4E9102381F00041FDF7F2
:102FA000DBFB05D2D4E90E0181F00041C4E9100138
:102FB000D4E91001BDE8F09F0000794000407F4057
:102FC0000040AF403EB510A0FEF728FE01248DF86A
:102FD000064000258DF8045008208DF80500009467
:102FE0002046FEF773F96846FEF77EF906208DF855
:102FF00008008DF80B408DF809408DF80A5002A8A2
:10300000FFF7A4F83EBD00004D616E75616C204D68
:103010006F64756C65000000F0B589B00646FEF778
:10302000FBFD002132A20846FEF71CFE012108200C
:1030300000F0D2F90121880300F0C2F9012110202B
:1030400000F0BEF9FEF77EFA3820ADF80C00022041
:10305000ADF806000720ADF8100000248020ADF880
:103060000E000125ADF800404FF48270ADF802006B
:10307000ADF8085068021F4FADF80A00ADF80440E3
:103080006946384600F0C3FE0121384600F0AAFE2A
:1030900001F01EF836208DF820008DF823508DF8B1
:1030A00021408DF822404FF44070FFF781F808A8C6
:1030B000FFF74CF8ADF81A40ADF816408DF81C40FB
:1030C00041F61F400C4C761EADF81400ADF81860A8
:1030D00005A9204601F0CEFB01221146204601F051
:1030E000B5FA0121204601F0E1F909B0F0BD000078
:1030F0005053580000380040001000407FB505468E
:1031000060200C46ADF8000000210120ADF802005F
:1031100002EB8200ADF804104000ADF80A10ADF8E3
:103120000600ADF80810284601F0C0F9E0070BD002
:103130006946284601F092FA0121284601F0C0F9BB
:103140000121284601F0B2F9A0070BD569462846AF
:1031500001F0C4FA0121284601F0B2F90121284604
:1031600001F0A4F960070BD56946284601F0F4FA8E
:103170000121284601F0A4F90121284601F096F921
:1031800020070BD56946284601F022FB012128467D
:1031900001F096F90121284601F088F97FBD000071
:1031A0002DE9FE4F054656480C46471416464FF487
:1031B000007A854228D10121384600F00DF901211D
:1031C000102000F009F94F4FE00705D03B460322DD
:1031D00018214020FEF720F9A00705D53B46032221
:1031E00018218020FEF718F9600706D53B46032218
:1031F00018214FF48070FEF70FF9200767D50322DE
:103200003B461821504660E03F48854227D10121C6
:10321000082000F0D5F80121042000F0DDF83B4F34
:10322000E00705D03B46032218210120FEF7F4F801
:10323000A00705D53B46032218210220FEF7ECF833
:10324000600705D53B46032218210420FEF7E4F869
:1032500020073CD5032218213B46082035E02C48A6
:10326000854234D14FF400680121404600F0B4F8A3
:103270000121402000F0B0F80121084600F0ACF830
:1032800001212448FEF728F9DFF88C90E00705D0EB
:103290004B46032218215046FEF7BEF8A00705D57D
:1032A0004B46032218214046FEF7B6F8600705D5C5
:1032B0004B46032218213846FEF7AEF8200706D504
:1032C0004B46032218214FF48040FEF7A5F800205A
:1032D000ADF8060040F2E731ADF8041045F6C051F4
:1032E000B1FBF6F1ADF80200491EADF800108DF803
:1032F00008006946284601F0BDFABDE8FE8F0000CF
:103300000034014000100140000C00400008014062
:10331000002C0140C000160000180140704700005A
:10332000204A1028D17812793AD2DFE800F008114B
:1033300014171A1D202326292C2F32350B0E41F38A
:1033400000002BE041F3400028E041F3800025E03D
:1033500041F3C00022E041F300101FE041F34010B0
:103360001CE041F3801019E041F3C01016E042F375
:10337000000013E042F3400010E042F380000DE053
:1033800042F3C0000AE042F3001007E042F34010AD
:1033900004E042F3801001E042F3C010401C70478B
:1033A0000020704708020020044A0029516901D01A
:1033B000014300E08143516170470000001002406A
:1033C000044A0029D16901D0014300E08143D16161
:1033D0007047000000100240044A0029916901D0A2
:1033E000014300E0814391617047000000100240FA
:1033F000224910B54A6812F00C03214A03D0042B6D
:1034000001D0082B26D002604A681E4B02F0F00261
:1034100012099C5C0268E24042604C6804F4E0647B
:10342000240A1C5D22FA04F484604C6804F460549D
:103430004FEAD4241B5D22FA03F2C2604968114BA3
:1034400001F440414FEA91311B1F595CB2FBF1F18D
:10345000016110BD4A684B6802F470124FF002041B
:1034600013F4803F04EB924202D04B689B0301D5DA
:10347000054B00E0024B5A43C5E700000010024034
:1034800000127A00F401002000093D002DE9F0410E
:103490001E4E002501213046FEF751F80020401C49
:1034A00080B21428FBD300244FF48067E0074FF06C
:1034B0000201304602D0FEF742F801E0FEF75CF868
:1034C0000020401C80B20A28FBD3E00706D0680425
:1034D000050C39463046FEF72BF80543641CE4B270
:1034E000202CE3D3C5F3440401213046FEF744F811
:1034F0000020401C80B21428FBD3102C03D0112CC8
:1035000001D0122CC6D1A809BDE8F081000C014001
:103510002DE9F05F304C074647F6FF784FF0FF3B50
:103520006068FDF799F806460D46012F27D06088A0
:10353000FDF7A3F8294F81468A463888A0EB08009A
:10354000FDF78AF84A465346FCF7F2FF32462B460F
:10355000FCF77EFF5A46FDF75AF8C4E902013A88A3
:1035600049F22F139A4204D83A8846F6CF639A421A
:1035700027D2A7F8008000200146BDE8F09F2088F0
:10358000FDF77BF8164F81468A463888A0F5FE4045
:10359000FF38FDF761F84A465346FCF7C9FF32464B
:1035A0002B46FCF755FF5A46FDF731F8C4E90201F6
:1035B0003A8848F69F739A42DBD83A8847F25F030D
:1035C000D5E700221346FDF7B3F801D0A7F8008035
:1035D000D4E90201D1E7000050000020240400409B
:1035E000240800400E49CA79487A02EBC20303EB73
:1035F000021200EB82000A7A0A4B02EB82028979FE
:1036000003EB420210442D2900D1404240F2E73141
:10361000884202DA4942884200DC002070470000FC
:103620003406002030EBFFFF2DE9FE4F6846FEF721
:1036300033FB0298FDF710F8724CA4F18005C4E941
:1036400010012A79704FDFF8C491714E4AB10246D9
:103650000B46D5E91401FDF737FDC4E90E01002042
:103660002871D5E91401C4E91601D4E91001D4E99F
:103670000E23FCF747FE00223346C5E91401FDF78F
:103680006BF84FF0000205D8D5E914014B46FCF762
:10369000D9FE0BE0D5E914013B46FDF749F807D206
:1036A000D5E9140100224B46FCF72CFEC5E91401B4
:1036B000D4E91623D5E91401A846FCF7C3FE00227D
:1036C00035463346C4E90C01FDF746F84FF00002D9
:1036D00005D8D4E90C014B46FCF7B4FE0BE0D4E965
:1036E0000C013B46FDF724F807D2D4E90C01002277
:1036F0004B46FCF707FEC4E90C01464ED6E9002311
:10370000D4E90C01FCF7A4FE0022A9462B46FCF7E5
:103710000FFF0022404BC4E90C01FCF799FE05465F
:103720000F460220FFF7F4FE2A463B46FCF78AFECE
:10373000C4E90801D4E90C010022384BFCF788FEEB
:1037400005460F460120FFF7E3FE2A463B46FCF7FD
:1037500079FEC4E90A01D6E900234546D5E91401FA
:10376000FCF776FE00224B46FCF7E2FE01F066FE17
:10377000C4E91201D6E90023D5E91401FCF768FE7B
:1037800000224B46FCF7D4FE02F0FCF8C4E9140119
:10379000D4E9122306460F46D4E90A019046994619
:1037A00083468A46FCF754FECDE90001D4E90801BE
:1037B00032463B460C460290FCF74AFEDDE9002308
:1037C000FCF7A0FDD5E91023FCF79CFDC5E910012D
:1037D00042464B4621460298FCF73AFE044688468C
:1037E00032463B4658465146FCF732FE4346224697
:1037F000FCF728FED5E91223FCF784FDC5E9120188
:10380000BDE8FE8FE0000020008066C000807640AA
:1038100000806640B86400080000694000606340B2
:103820000B2000F011BB000010B501210802FFF7CA
:10383000D3FD01214020FFF7CFFD074B03221021CC
:103840000620FDF7E9FD0322BDE81040034B1021DF
:103850004FF47C70FDF7E0BD0018014000200140EE
:10386000024630B41D481E4B092A34D2DFE802F06C
:1038700033050A0F14191C22270001294FF01001EB
:1038800022D025E001294FF020011DD020E00129A0
:103890004FF0400118D01BE001294FF0800113D0F8
:1038A00016E04FF4807201E04FF4007201291146D6
:1038B0000AD00DE001294FF0020104D007E00129F0
:1038C0004FF0040103D1184630BCFDF755BE184631
:1038D00030BCFDF734BE30BC704700000020014012
:1038E000001801402DE9F05F0546FFF77BFEFE4C16
:1038F000002860636BD0FD4FFD4EDFF8F883142D78
:1039000065D2DFE805F0640A641A2A646464643BE3
:1039100042646464644C646458584042FCF79CFE02
:10392000D4E91823FCF7EEFC0022F34BFCF78AFDE8
:1039300000223B46FCF7E6FC47E010F1460F46DA72
:10394000FCF78AFED4E91623FCF7DCFC0022EB4BE3
:103950000DE000BFC4E9100139E06179B9B3FCF7AB
:103960007BFED4E91623FCF7CDFC0022E44BFCF7E8
:1039700069FD00223B46FCF7C5FCEBE7FCF76CFE5B
:10398000D4E91823FCF7BEFC06E06179F9B142F6F0
:1039900049410844FCF760FE0022334613E04042F0
:1039A000FCF75AFED4E91623FCF7ACFC0022D54BF9
:1039B000FCF748FDCEE7FCF74FFED4E91823FCF7EF
:1039C000A1FC00224346FCF73DFDC4E91201CE4EA6
:1039D000A079317888427BD00220FFF7A1FCDFF884
:1039E0002C93DFF82CA3DFF82CB3E0B3D4E9140157
:1039F00000224B46FCF7B0FE0DD2D4E914010022A0
:103A0000C54BFCF795FE06D2D4E910010022C34B4A
:103A1000FCF718FD2AE0D4E9140100225346FCF714
:103A20009BFE0DD2D4E9140100225B46FCF780FE18
:103A300006D2D4E912010022B84BFCF763FC2CE05B
:103A4000D4E914010022B64BFCF786FE06D3D4E974
:103A500014010022B34BFCF76BFE0AD2D4E910012B
:103A60000022AE4B00E01AE0FCF74CFCC4E9100168
:103A700015E0D4E914010022AB4BFCF76DFE0ED229
:103A8000D4E914010022A94BFCF752FE07D2D4E975
:103A900012010022A14BFCF7D5FCC4E9120104205D
:103AA000FFF73EFCE8B3D4E9140100224B46FCF7D3
:103AB00053FE0ED2D4E914010022974BFCF738FED6
:103AC00007D2D4E910010022944BFCF71BFC2BE039
:103AD00078E1D4E9140100225346FCF73DFE0DD2F3
:103AE000D4E9140100225B46FCF722FE06D2D4E999
:103AF00012010022894BFCF7A5FC2CE0D4E914014B
:103B00000022874BFCF728FE06D3D4E914010022DB
:103B1000844BFCF70DFE0AD2D4E9100100227F4B42
:103B200000E01AE0FCF78EFCC4E9100115E0D4E9CE
:103B3000140100227C4BFCF70FFE0ED2D4E91401D5
:103B400000227A4BFCF7F4FD07D2D4E912010022DF
:103B5000724BFCF7D7FBC4E912010520FFF7E0FB2D
:103B6000F8B1D4E9140100224B46FCF7F5FD19D257
:103B7000694FD4E9140100223B46FCF7D9FD11D26C
:103B8000012D4FF0000205D0D4E91201634BFCF780
:103B900059FC30E0D4E918013B46FCF753FCC4E97A
:103BA00018014FE0D4E9140100225346FCF7D4FD7C
:103BB0000DD2D4E9140100225B46FCF7B9FD06D210
:103BC000D4E910010022554BFCF73CFC30E0D4E96D
:103BD00014010022524BFCF7BFFD06D3D4E91401B7
:103BE0000022504BFCF7A4FD08D2D4E912010022B8
:103BF0004A4BFCF787FBC4E9120123E0D4E9140126
:103C00000022494BFCF7A8FD1CD2D4E91401002284
:103C1000464BFCF78DFD15D2052D32D0032D4FF00C
:103C2000000208D03D4B00BFD4E91001FCF76AFB4D
:103C3000C4E9100106E0D4E91601374BFCF762FB3A
:103C4000C4E916010320FFF76BFBDFF8E48010B333
:103C5000D4E9140100224B46FCF77EFD1CD22E4F06
:103C6000D4E9140100223B46FCF762FD14D2012D79
:103C70004FF0000208D0D4E91201284BFCF742FBB8
:103C80005AE00022244BCFE7D4E918013B46FCF769
:103C900039FBC4E9180175E0D4E914010022534648
:103CA000FCF75AFD0DD2D4E9140100225B46FCF763
:103CB0003FFD06D2D4E910010022184BFCF722FB8D
:103CC00056E0D4E914010022154BFCF745FD06D35C
:103CD000D4E914010022134BFCF72AFD2FD2D4E9BA
:103CE000120100220D4B25E06000002000003E4044
:103CF000004052C0008042C00020644000805BC091
:103D000000907BC000A0894005000020000024C076
:103D1000000059C0000054C000002440000034409E
:103D200000406540004065C000005440000059401C
:103D300000807640FCF786FBC4E9120122E0D4E95A
:103D400014010022214BFCF707FD1BD2D4E914011A
:103D500000221F4BFCF7ECFC14D2052D21D0032DC3
:103D60004FF0000207D01B4BD4E91001FCF76AFBAF
:103D7000C4E9100106E0D4E91601174BFCF762FB19
:103D8000C4E91601D4E914010022144BFCF7E4FC49
:103D90004FF0000208D8D4E914014346FCF752FB67
:103DA0000EE000220C4BDFE7D4E914010C4BFCF7CA
:103DB000BFFC07D2D4E9140100224346FCF7A2FA63
:103DC000C4E914013078A071BDE8F09F00005440B0
:103DD000000059400000344000002440008066404C
:103DE000008066C00029018802D041F0400101E056
:103DF00021F04001018070470246002012890A42EA
:103E000000D001207047808970478181704730B5AC
:103E100002884C8802F441530A88CD8822438C885A
:103E20002C4322430C8922434C8922438C89224310
:103E3000CC8922431A430280828B22F4006282835F
:103E4000098A018230BD704770B532265C4C5D4DE9
:103E5000142825D2DFE800F00A1525303B46505AD9
:103E600064676F7275787B7E86909BA501212046E2
:103E7000FDF75EFB002813D13046FDF7E7F801217E
:103E800009E002212046FDF753FB002808D1304607
:103E9000FDF7DCF802212046FDF74AFB002875D02B
:103EA00084E004212046FDF743FB00287ED1304604
:103EB000FDF7CCF80421EEE708212046FDF738FB9A
:103EC000002873D13046FDF7C1F80821E3E710213F
:103ED0002046FDF72DFB002868D13046FDF7B6F8E7
:103EE0001021D8E720212046FDF722FB10BB3046E9
:103EF000FDF7ACF82021CEE740212046FDF718FB66
:103F0000C0B93046FDF7A2F84021C4E78021204621
:103F1000FDF70EFB70B93046FDF798F88021BAE73F
:103F20004FF4807501E04FF4007529462046FDF7F7
:103F3000FFFA90B13AE04FF48065F6E74FF4006580
:103F4000F3E74FF48055F0E74FF40055EDE74FF4F9
:103F50008045EAE74FF40045E7E73046FDF776F89D
:103F6000294698E701212846FDF7E2FAF0B93046E4
:103F7000FDF76CF801211FE002212846FDF7D8FA71
:103F8000A0B93046FDF762F8022115E016E00421E1
:103F90002846FDF7CDFA48B93046FDF757F8042119
:103FA0000AE008212846FDF7C3FA08B1002070BDD9
:103FB0003046FDF74BF8082128466DE7012070BD1B
:103FC000001C01400014014010B501218020FFF7C2
:103FD00003FA01212020FFF7FFF9074B03220421F8
:103FE0004FF6FF70FDF718FA03220421BDE81040D8
:103FF000024B0F20FDF710BA001C014000140140D5
:1040000070B586B00E4600246D4650B101460122BF
:10401000284601F069FA01E0641CE4B2285D00283A
:10402000FAD176202855641CE0B228440522314696
:1040300001F05AFA6946024800F0CEFD06B070BDA4
:104040000048004020480021026842F480320260AB
:104050004FF4A063026801F1010112F4003F01D1A5
:104060009942F7D1016889032CD518490A6842F0B2
:1040700010020A600A6822F003020A600A680A60F5
:10408000416841604168416041684160416821F494
:104090007C114160416841F498114160016841F030
:1040A0008071016001688901FCD5416821F003013C
:1040B0004160416841F0020141604168C1F3810102
:1040C0000229FAD17047000000100240002002408F
:1040D0002DE9F05F4C4DDFF834A1DFF834B14FF437
:1040E00080594E464946D0465046FDF728FA494F7A
:1040F00000242846395DFFF788FE01212846FFF796
:104100007BFE0028F9D02846FFF77DFE641CE4B250
:10411000042CEED9314647464046FDF72DFA1420CF
:10412000FCF794FF31463846FDF709FADFF8E480E2
:10413000002408F1050800BF18F804102846FFF70E
:1041400064FE01212846FFF757FE0028F9D02846D3
:10415000FFF759FE641CE4B2082CEDD93446314611
:104160003846FDF709FA1420FCF770FF214638465F
:10417000FDF7E5F9DFF89C80002608F1170800BF7D
:1041800018F806102846FFF740FE01212846FFF7E1
:1041900033FE0028F9D02846FFF735FE761CF6B22C
:1041A000082EEDD9A1464946B8463E463846FDF7A9
:1041B000E3F91420FCF74AFF21463046FDF7BFF92A
:1041C000144E00240E365F46315D2846FFF71DFE73
:1041D00001212846FFF710FE0028F9D02846FFF7F6
:1041E00012FE3855641CE4B2082CEDD97C7849469F
:1041F0004046FDF7C1F91420FCF728FFF32C7FF4AB
:1042000070AFBDE8F09F000000380040000C014096
:1042100008020020345A0008704700000F4810B50B
:10422000016841F00101016041680D4A114041609F
:1042300001680C4A11400160016821F4802101608D
:10424000416821F4FE0141604FF41F018160FFF7D6
:10425000F9FE05494FF00060086010BD00100240F3
:104260000000FFF8FFFFF6FE08ED00E030B5048C1B
:1042700024F001040484058B048C1B0542EA1343DB
:1042800025F0F3050E4A2B4390420ED00D4A904282
:104290000BD0B0F1804F08D00B4A904205D00B4AAA
:1042A000904202D00A4A904202D124F0020201E078
:1042B00024F00A020A4342F001010383018430BD65
:1042C000002C014000340140000400400008004080
:1042D000000C004070B5048C24F010040484068B9C
:1042E000048C26F473461B0746EA1343120643EA7E
:1042F00012420D05104B2D0C98420ED00F4B9842D8
:104300000BD0B0F1804F08D00D4B984205D00D4B2B
:10431000984202D00C4B984205D124F02001294349
:1043200041F0100104E024F0A0030B4343F010011E
:104330000283018470BD0000002C01400034014064
:104340000004004000080040000C004010B50121AE
:10435000034800F0A8F803480188491C018010BDFB
:10436000000C0040440000202DE9F04701213D48A9
:1043700000F099F8DFF8F0904FF480584146484635
:10438000FDF7DDF8394E3A4D3A4F00242846315DAD
:10439000FFF73BFD01212846FFF72EFD0028F9D04D
:1043A0002846FFF730FD3855641C082CEEDD4146E9
:1043B0004846FDF7E1F8304C6078002850D00020E6
:1043C0006070FCF731FEA0700A20FEF7A9FF30B143
:1043D00001202070FCF710FF0120FCF77DFF0C206E
:1043E000FEF79EFFC0B3FDF717FC2449D1E9000199
:1043F000FCF769F9024600210846FDF73EFC20491A
:10440000D1E90001FCF75FF9024601210020FDF728
:1044100034FC1C49D1E90001FCF755F902460221A0
:104420000020FDF72AFC1848032102880020FDF730
:1044300024FC1648032102780620FDF71EFC1448D0
:10444000012102880620FDF718FCFFF7CBF8024691
:1044500002210620FDF711FCBDE8F047FCF764BE21
:104460000120ADE700100040000C01404B5A00084D
:10447000003800400802002004000020B0000020A6
:10448000A0000020A80000204400002063000020BD
:104490003E0000200121014800F005B80014004052
:1044A000C94301827047C9430182704700290188CE
:1044B00002D041F0010101E021F0010101807047CB
:1044C000002930F8441F02D041F4004101E0C1F35B
:1044D0000E010180704770B50589048B068C25F0AC
:1044E00007050D434FF6FC410C4040F201110C430F
:1044F00026F0220642EA0311314305810483018438
:1045000070BD02460020128A0A4200D00120704786
:104510002DE9F05F0D4604460E884348DFF80CC1D4
:10452000DFF80CA1DFF80CE14988AA882B894FF04D
:10453000804B4EB3042E30D0082E268C36D026F475
:1045400080562684B4F81C90268C0F074FEA174833
:10455000120629F473471B0747EA124242EA134343
:10456000224684420BD01046624508D05C4506D0F6
:10457000504504D0744502D02F48844246D126F4D9
:10458000005040EA080044E02046FFF76FFEE9884B
:104590002046BDE8F05F00F04BB92046FFF79AFED9
:1045A000E9882046BDE8F05F00F04AB926F480763D
:1045B0002684A78B268C1B0542EA134327F0F307BA
:1045C0004FEA01683B434FEA1848224684420BD029
:1045D0001046624508D05C4506D0504504D074456D
:1045E00002D01548844204D126F4007040EA080045
:1045F00002E026F42060084340F48070A383208406
:10460000E9882046BDE8F05F00F023B926F40240B7
:10461000084340F48050A3832084E9882046BDE805
:10462000F05F00F01EB90000002C01400034014092
:104630000004004000080040000C00400021018000
:10464000418001228280C18001817047002A8289D5
:1046500001D00A4300E08A438281704730B5028C62
:1046600022F001020284028C8388048B22F0020271
:1046700024F073050C882C430D8915434A882A437E
:10468000114DA8420BD0114DA84208D0104DA842A0
:1046900005D0104DA84202D00F4DA8420DD122F0F6
:1046A00008054A8923F440732A4322F004058A88C6
:1046B0002A438D891D43CB892B4383800483C9887A
:1046C0008186028430BD0000002C0140003401408E
:1046D00000400140004401400048014030B5028CD8
:1046E00022F010020284028C8388048B22F02002C4
:1046F00024F4E6450C88240645EA14440D892D056A
:1047000042EA15454A88120545EA1242104DA84270
:1047100002D0104DA84215D122F080054A8923F419
:104720004063120545EA124222F040058A881205CC
:1047300045EA12428D89AD0443EA1545CB899B04B5
:1047400045EA134383800483C9880187028430BD0E
:10475000002C01400034014030B5028C22F48072FC
:104760000284028C8388848B22F4007224F0730507
:104770000C882C430D892D0642EA15454A881206FD
:1047800045EA1242104DA84202D0104DA84215D160
:1047900022F400654A8923F44053120645EA124286
:1047A00022F480658A88120645EA12428D892D0519
:1047B00043EA1545CB891B0545EA1343838084836F
:1047C000C9888187028430BD002C0140003401403B
:1047D00030B5028C22F480520284038C8288848B50
:1047E00024F4E6450C88240645EA144423F40055D5
:1047F0000B891B0745EA13434D882D0743EA1545EE
:10480000094B984202D0094B984205D122F48043CB
:104810008A89920543EA124282808483C988A0F87B
:104820004010058430BD0000002C014000340140E0
:10483000028B22F00C020283028B0A430283704730
:10484000028B22F440620283028B42EA012202833D
:104850007047828B22F00C028283828B0A43828310
:104860007047828B22F440628283828B42EA01226B
:104870008283704730B502881B4B1C4C98420DD088
:10488000A0420BD0B0F1804F08D0194DA84205D0FE
:10489000184DA84202D0184DA84203D122F070054D
:1048A0004A882A43154DA84206D0154DA84203D088
:1048B00022F44075CA882A4302808A8882850A8841
:1048C000028598420AD0A04208D00E4A904205D0F4
:1048D0000D4A904202D00D4A904201D1097A0186D8
:1048E0000121818230BD0000002C014000340140D4
:1048F0000004004000080040000C00400010004090
:1049000000140040004001400044014000480140C4
:104910004FF6FF71818000210180C18041800172CA
:10492000704700210820FEF79BBF01210820FEF7F9
:1049300097BF000010B501210820FEF74DFD0322AE
:104940000421BDE81040024B8801FCF765BD000062
:10495000000C014001498870704700006000002091
:1049600070B50B488078002811D00A4D4FF4807440
:1049700021462846FCF7DCFD002808D00A20FCF779
:1049800065FB21462846BDE87040FCF7D1BD70BDEF
:1049900060000020000C01407FB504460121042086
:1049A000FEF71AFD01218803FEF716FD114D0322C3
:1049B0002B4618216815FCF72FFD04212B460322F6
:1049C0000802FCF729FD00200C210094ADF80A1024
:1049D000ADF80600084CADF80C00ADF80800ADF8D5
:1049E00004006946204600F099F80121204600F0B5
:1049F0007BF87FBD00080140003801407FB50446C8
:104A000001214804FEF7DCFC01212020FEF7E4FC34
:104A100001210846FEF7E0FC01210820FCF75CFDBF
:104A2000114D03222B4618212020FCF7F5FC2B46C4
:104A3000032204214020FCF7EFFC00200C2100940D
:104A4000ADF80A10ADF80600084CADF80C00ADF852
:104A50000800ADF804006946204600F05FF8012127
:104A6000204600F041F87FBD0014014000440040A2
:104A70007FB5044601218804FEF7A2FC0121202015
:104A8000FEF7AAFC01210846FEF7A6FC0121134807
:104A9000FCF722FD124D03222B461821A815FCF726
:104AA000BBFC04212B460322C801FCF7B5FC002007
:104AB0000C210094ADF80A10ADF80600094CADF8D1
:104AC0000C00ADF80800ADF804006946204600F07F
:104AD00025F80121204600F007F87FBD30001400C2
:104AE00000140140004800400029818902D041F4AF
:104AF000005101E021F4005181817047002A828A2F
:104B000001D00A4300E08A438282704702460020B7
:104B100012880A4200D001207047000030B50446D8
:104B2000008A85B00D464CF6FF710840E9880143C4
:104B30002182A1894EF6F3100140A8882A891043EA
:104B40006A890A431043A081A08A4FF6FF410840BA
:104B5000A9890143A1826846FEF74AFC1B488442AA
:104B600001D1039800E00298A1890904002900EB13
:104B7000C00101EB0010296802DA4FEA410101E0AF
:104B80004FEA8101B0FBF1F06422B0FBF2F14FEA91
:104B900001114FEA11136FF018056B4300EB83000E
:104BA000A3891D044FF0320306D503EBC000B0FB10
:104BB000F2F000F0070005E003EB0010B0FBF2F0AC
:104BC00000F00F000843208105B030BD00380140DF
:104BD000C1F308018180704770B506460D46002478
:104BE00009E03046FFF7F4FF80213046FFF78EFFE3
:104BF0000028F9D0641C295D0029F2D10D2130462E
:104C0000FFF7E6FF80213046FFF780FF0028F9D04C
:104C100070BD000047F6FF71012802D002480180F4
:104C200070470248FBE700002404004024080040CD
:104C3000FEE700002DE9F05F9046DDE90A45994660
:104C400006460F460022264B20462946FBF700FC6D
:104C500032463B46FBF756FBDFF888A0DFF888B00A
:104C600052465B46FBF7F4FBFBF72DFD01B201203A
:104C7000FFF7C6F900221D4B20462946FBF7E8FB4B
:104C800042464B46FBF7E1FBFBF71DFD01B204205A
:104C9000FFF7B6F90022164B20462946FBF7D8FB52
:104CA00032463B46FBF7CEFB52465B46FBF7D0FB5A
:104CB000FBF709FD01B20320FFF7A2F900220D4B1B
:104CC00020462946FBF7C4FB42464B46FBF7BAFB9E
:104CD000FBF7F9FCBDE8F05F01B20220FFF790B9E5
:104CE00000A07440CDCCCCCCCCCCF43F00C067400D
:104CF0000040704000C067C02DE9FF5F82B082466F
:104D0000DDE912012A4B9046D3E90023FBF7A0FB13
:104D10000022284BFBF70CFC04460D4600F08EFBEE
:104D2000254FC7E900012046294600F02BFEC7E9C0
:104D30000201D7E9002304460D4616461F464046A9
:104D40000599FBF785FB81468B4622462B4650464C
:104D50000399FBF77DFB4A465B46FBF773FB164A5C
:104D60008346803A8946C2E91C0132463B4650469A
:104D70000399FBF76DFB06460F4622462B4640463D
:104D80000599FBF765FB32463B46FBF7BBFA0A4A3F
:104D9000803AC2E91E01DDE91023CDE90023024675
:104DA0000B4658464946FFF745FF06B0BDE8F09F61
:104DB000B864000800806640E0010020490050EA25
:104DC000C12018BF04204A0D18BF40F0010040F276
:104DD000FF72B2EB515F08BF40F00200012808BF2C
:104DE000052070472DE9F74F144696B00021C4E91D
:104DF00002111799099121F00047C9498F4206DC39
:104E00001799C4E9000119B00020BDE8F08FC54929
:104E1000C54EB94241DD0999DFF81083DFF810A3D0
:104E2000C44A00291BDD33461799FBF70BFBB74239
:104E300006D0C14AC14BFBF705FBC4E900010AE0FB
:104E40004FF0D352BD4BFBF7FDFA42465346FBF7FA
:104E5000F9FAC4E9000119B00120BDE8F08F354628
:104E600033461799FBF74EFAAF4206D0B24AB34B1E
:104E7000FBF748FAC4E900010AE04FF0D352AF4B08
:104E8000FBF740FA42465346FBF73CFAC4E90001FF
:104E900019B04FF0FF30BDE8F08FA9498F42179944
:104EA00077DC21F000458346A64AA74B2946FBF74D
:104EB000CFFA0022A54BFBF725FAFBF704FC0A907A
:104EC000FBF7CAFB80468A469A4A3346FBF7C0FA8C
:104ED0002B465A46FBF7B9FA05460E46964A974BBB
:104EE00040465146FBF7B4FA3A0D01270C922A4688
:104EF0003346FBF7AAFA032FC4E9000138D00C9817
:104F0000C1F30A51401A07EB4711113988422FDDCE
:104F10008F480096784400EB07100D90D0E90023ED
:104F2000AB4640465146FBF793FACDE904010246F1
:104F30000B4658460099FBF785FA05460E46024691
:104F40000B4658460099FBF77DFADDE90423FBF791
:104F500079FA83460D9804915146D0E902234046E0
:104F6000FBF776FA5A46049BFBF76CFA7F1CBEE708
:104F700009980028A2BF0A9819B0BDE8F08F6168AF
:104F800081F0004161600A9819B04042BDE8F08F9D
:104F9000FFE784461798C1F31301C0F30A5041F4A8
:104FA0008011A0F2F5300591411100F01F08C8F101
:104FB000200012900020109011906648784400EB79
:104FC000810000F1140311A8062719685D68129A80
:104FD00001FA08F125FA02F21143059AD0F800A06F
:104FE000A1FB0256A1FB0C2192440D44924534BF13
:104FF0004FF0010B4FF0000B50F8042C05EB0B0E9B
:1050000072448D4234BF012100213144BBF1000FB5
:1050100002D0AA4202D903E0AA4201D2012500E04F
:1050200000252944C0F800A040E902121B1F001F00
:105030007F1ECAD10C980F9F00F10050800F129074
:105040000C98DDE90D568000FBF706FBCDE9080161
:105050002846FBF712FB6FF01D02FBF7D8FACDE9EB
:1050600006013046FBF709FB6FF03D02FBF7CFFA74
:1050700082468B463846FBF700FB6FF05D02FBF77C
:10508000C6FA0746884652465B46FBF73BF9DDE920
:105090000623FBF737F9DDE90823FBF733F9DDE9F0
:1050A000082300250E462846FBF7CCF9DDE9062348
:1050B000FBF7C8F952465B46FBF7C4F93A4643464C
:1050C000FBF7C3F9DFF894A0234A5346FBF7C0F976
:1050D00080460F46224A234B31462846FBF7B8F953
:1050E00042463B46FBF70EF9074688464FF0A8427A
:1050F000534631462846FBF7ABF93A464346FBF7A1
:1051000001F9179A12F0004F04D0129A81F0004171
:1051100052421292C4E90001129819B0BDE8F08F12
:10512000FB21E93F7CD90240FB21F93F7370032E3C
:105130008A19A33B000040543163621A61B4D03D28
:10514000FB21394183C8C96D305FE43F0000E03F77
:10515000D815000060150000182D4454FB21F93DBE
:105160003326A611460B113C2DE9FF4D21F00048D6
:1051700007460C46B8F1795F08DAFBF7A4FA002875
:1051800001BF0020324904B0BDE8F08D3A46234605
:1051900010461946FBF75CF9054602462D480E46B7
:1051A0000B460621784400F05DF82A463346FBF7AB
:1051B0004FF9DDE9022382468B4638462146FBF74C
:1051C00047F904460F4652465B4628463146FBF7F0
:1051D0003FF922463B46FBF735F907468A464FF032
:1051E000FF3228463146FBF712FA1B4A90450ADA8D
:1051F0003A465346FBF726F904B00022BDE8F04DCD
:10520000134BFBF722B9154A4245A8BFA8F5001574
:105210004FF00004B8BF124D22462B46FBF712F99F
:105220000646884622462B4600200949FBF70AF924
:1052300004460D463A46534630464146FBF702F9CE
:1052400004B022462B46BDE8F04DFBF7FEB8000047
:105250000000F03F181300003333D33F0000E93F54
:105260000000D23F2DE9F0414F1E00EBC70104467C
:10527000D1E9000115461E4637F006020DD02A4638
:105280003346FBF7E5F87F1E04EBC703D3E90023A1
:10529000FBF738F837F00602F1D1022F25D0042FA2
:1052A00013D0062F18BFBDE8F0812A463346FBF71E
:1052B000CFF8D4E90A23FBF725F82A463346FBF753
:1052C000C7F8D4E90823FBF71DF82A463346FBF755
:1052D000BFF8D4E90623FBF715F82A463346FBF757
:1052E000B7F8D4E90423FBF70DF82A463346FBF759
:1052F000AFF8D4E90223FBF705F82A463346FBF75B
:10530000A7F8D4E90023BDE8F041FAF7FBBF00009D
:105310002DE9FF4D054621F0004084B00C46B0F168
:10532000795F0BDA2846FFF749FD042808BF00F033
:1053300067F8284608B02146BDE8F08D2A460B469E
:1053400010462146FBF784F806460F462A462346B8
:10535000FBF77EF8804627488A4632463B460521C1
:105360007844FFF77FFF83461098029160B3224A8A
:10537000224B40465146FBF76BF8CDE900015A46F7
:1053800040465146029BFBF763F882468846DDE9BA
:1053900006014FF0FF32FBF73AF952464346FBF75E
:1053A00051F832463B46FBF753F8DDE90623FBF79D
:1053B00049F8DDE90023FBF745F808B02A46234603
:1053C000BDE8F04DFBF741B80B465A46304639462A
:1053D000FBF73EF8084A094BFAF794FF424653465A
:1053E000FBF736F808B02A462346BDE8F04DFAF739
:1053F00089BF000054120000495555555555C5BF89
:10540000024A00201107FBF702B9000001FDFFFF6F
:1054100002E008C8121F08C1002AFAD1704770477D
:10542000002001E001C1121F002AFBD170470000DB
:1054300001490860704700000402002000B5284BB5
:1054400021F0004287B09A42DCBF0022134630DDD3
:10545000244B9A420DD168B94FF00100FFF7E8FFE5
:10546000002207B01346104611465DF804EBFBF727
:105470005FB805DB07B001225DF804EBFBF7C7B8A6
:1054800002AAFFF7AFFC10F0030104BF0DF1080CF6
:10549000BCE80F000DD0012001290ED0022914D044
:1054A0000DF1080C0090BCE80F00FFF731FF07B0CA
:1054B00000BDFFF759FE07B000BD0DF1080C0090CC
:1054C000BCE80F00FFF724FF05E00DF1080CBCE875
:1054D0000F00FFF749FE07B081F0004100BD00005A
:1054E000FB21E93F0000F07FF0B500230D1E9C4634
:1054F000C1F100044FF00A074FF0300607D00BDA75
:105500002D230370254601230BE0C6545B1C9342F8
:10551000FBDB00F803C0F0BD80F8006095FBF7F5F9
:105520005B1C002DFAD19A4200DD134600F803C03F
:105530005B1E002909DA214607E00A4691FBF7F1D4
:1055400007FB11223032C2545B1E0029F5D101E065
:10555000C6545B1E002BDEDBC15C2D29F8D1F0BDEB
:105560001CB5FCF767FBFCF7F5FBFBF7F5FEFCF75A
:10557000F1FA4FF4E130FFF77BFAFBF73BFA6420D6
:10558000FDF74AFDFBF78CFCFDF71CFD0020FBF747
:105590000DFEFCF719F8E84C2070FBF7BFFC2078F3
:1055A000E64EE74FE74DDFF8A0930024DFF89CA319
:1055B0004FF001086FF0B20B08287DD2DFE800F051
:1055C0007C043CE87C8BE78B012300226FF0BE015A
:1055D00040F60130FCF70EF90720FDF7A1FE002888
:1055E000FAD002235A224FF4106140F63930FCF70A
:1055F00001F99AF80010504671B10470D4490020A6
:10560000C6E90001D349C7E90001C5E9000089F8EE
:105610000080FFF78AF9DFE703235A2240F6D271B0
:1056200040F6AA50FCF7E6F804235A2241F6CC21B2
:1056300040F6F620FCF7DEF80120FFF78BF9052392
:105640005A2241F6A54140F2A960FCF7D3F80B209D
:10565000FDF766FE10B10120FBF7F4F90020FFF71B
:1056600079F9FBF785FC0120FBF7A0FD0CE000BFFA
:10567000FBF7C8FD022807D30020CDE90000024651
:10568000B54B0146FFF7D6FAFBF7BCFD0328EFD96F
:105690000623002241F6BA414FF4C870FCF7AAF87D
:1056A00007236FF0770242F231414FF4C870FCF7E4
:1056B000A1F808235A4600E037E142F681014FF491
:1056C0004260FCF797F809235A4642F6494140F6F2
:1056D0009A00FCF78FF80220FBF7B4F99F48007896
:1056E00058B90220FBF762FD03E00920FDF718FE20
:1056F00018B9FBF713FD0028F7D00A235A4642F2E7
:10570000AC6140F61220FCF775F89AF8000008B179
:10571000504617E09148007838B9FBF737F9032075
:10572000FBF744FD8D48007880B30B235A4642F2C4
:10573000AC6100BF4FF41670FCF75CF89AF80010EB
:10574000504661B1047086490020C6E900018549D0
:10575000C7E900018449C5E9000189F80080FBF729
:10576000FFFB0420FBF722FD002180A20846FCF786
:1057700079FA0C236FF0090241F61D51C820FCF79D
:1057800039F89AF8000048B1504620E001E02BE0DB
:1057900078E00B235A4642F26E71CBE70D230022CC
:1057A00041F61D5140F6CD10FCF724F89AF80000A0
:1057B0000028E9D117236FF0590241F69C4140F6C9
:1057C000E340FCF717F89AF80010504661B10470F6
:1057D00068490020C6E900016749C7E90001674937
:1057E000C5E9000189F80080B04656460E236FF0E7
:1057F000590241F27D1140F6E340FBF7FBFF3078A0
:1058000070B1347000225B490120C8E900215A4977
:10581000C7E900215949C5E9002189F80000E5E7F9
:105820000F236FF0590240F29F4140F6B720FBF77B
:10583000E1FF0520FBF7BAFC514810235D465A46AC
:105840004F493230FBF7D6FF4FF4FA7740F2272862
:105850000520FBF7ABFC0420FBF7F4F8FBF75EFB3D
:105860000620FBF7A3FC00BFFBF7CCFC0D28FBD206
:1058700011232A4639464046FBF7BCFF307808B171
:105880003470E5E7FBF78EF8FFF74FF840F29D47DD
:1058900012235D465A4639465020FBF7ABFF2E4691
:1058A00055460120FFF756F80520FBF7CBF80020FE
:1058B000FFF750F80720FBF779FC00BFFBF7A2FCCD
:1058C0000A28FBD31323324639469120FBF792FF77
:1058D000287808B12C70E4E70620FBF7B3F8FBF753
:1058E0003FFB00240020CDE90000024603460146AC
:1058F000FFF7A0F9641C642CF4DB0820FBF756FCCE
:10590000FBF70CFC0028FBD00620FBF79BF81423C8
:105910006FF0920240F24D4140F28A30FBF76AFF8D
:105920000720FBF78FF8FBF723FBFBF703FB00BF18
:10593000FDF77AFEFCE7000000000020A000002038
:10594000A8000020B00000206400002060000020BB
:105950000002A64000E067C000408FC06100002048
:105960000030914000B7C340006066C04C4F4144D6
:105970004544000000C6A94000B0BC40008056C0AD
:1059800070FEFFFF00B5294B21F0004287B09A421C
:1059900003DC00221346009233E0254B9A420DD1DE
:1059A00068B94FF00100FFF743FD002207B013462E
:1059B000104611465DF804EBFAF7BABD05DB07B0F7
:1059C00001225DF804EBFAF722BE02AAFFF70AFAF9
:1059D00010F003014FF001000ED0012915D002296B
:1059E0001BD00DF1080CBCE80F00FFF7BDFB00BF9A
:1059F00007B081F0004100BD0DF1080C0090BCE83B
:105A00000F00FFF785FC07B000BD0DF1080CBCE8E6
:105A10000F00FFF7A9FB07B000BD0DF1080C0090C7
:105A2000BCE80F00FFF774FCE2E70000FB21E93F50
:105A30000000F07F01430001000144000103000069
:105A40000000014300005A5A5A5A5A01420000000D
:105A50000000000000000000000000000000000046
:105A6000000000003F400000000000000000300087
:105A7000400030004000000009000BC03D000BC09A
:105A80003D00090018C024407FE022403180000022
:105A9000180024C01B000D803240018003801C4090
:105AA00027401C80074000401000600000000000FC
:105AB000000000000000000000001F802040402087
:105AC0000000402020401F80000000000900060068
:105AD0001F80060009000000040004003F8004004D
